:100000000C9474000C949C000C949C000C949C0028
:100010000C949C000C949C000C949C000C949C00F0
:100020000C949C000C949C000C942D060C949C0643
:100030000C949C000C949C000C949C000C949C00D0
:100040000C949C000C949C000C949C000C949C00C0
:100050000C949C000C949C000C949C000C94E30564
:100060000C949C000C949C000C949C000C949C00A0
:100070000C949C000C949C000C949C000C949C0090
:100080000C949C000C949C000C949C000C949C0080
:100090000C949C000C949C000C949C000C949C0070
:1000A0000C949C000C949C000C949C000403090488
:1000B0001201000200000040C016DC27000101020E
:1000C00003016B696361642D746F6F6C732E6F72C3
:1000D00067004B435420555342204A6F797374692B
:1000E000636B203033000A0A11241FBECFEFDAE021
:1000F000DEBFCDBF11E0A0E0B1E0EAE9FBE102C064
:1001000005900D92A632B107D9F722E0A6E2B1E040
:1001100001C01D92A430B207E1F710E0C4E7D0E0BF
:1001200004C02197FE010E94970CC337D107C9F77D
:100130000E9442080C94CB0D0C9400004F925F92E9
:100140006F927F928F929F92AF92BF92CF92DF92E7
:10015000EF92FF920F931F93CF93DF93E5010C155E
:100160001D052E053F050CF051C02801390146013F
:100170005701882309F44FC0CA01DB018415950596
:10018000A605B70514F4D301C201B501A401881571
:100190009905AA05BB0514F4AC01BD01C016D10632
:1001A000E206F30664F4D501C401841B950BA60B8B
:1001B000B70BAC01BD01440D551D661D771D9A019D
:1001C000AB012419350946095709AFEFBFEF0E946B
:1001D000330CA501940124193509460957090E94D9
:1001E000140C2883398382E090E0DF91CF911F9136
:1001F0000F91FF90EF90DF90CF90BF90AF909F90C6
:100200008F907F906F905F904F90089526013701F7
:1002100048015901AECF90E080E0E7CF3FB7F894B6
:100220008091670190916801A0916901B0916A0184
:1002300026B5A89B05C02F3F19F00196A11DB11D41
:100240003FBFBA2FA92F982F8827BC01CD01620F7D
:10025000711D811D911D43E0660F771F881F991F37
:100260004A95D1F70895CF92DF92EF92FF920E94C4
:100270000E016B017C010E940E016C197D098E0933
:100280009F09683E734081059105A8F3FF90EF90A8
:10029000DF90CF90089540915401509155012091E5
:1002A00052013091530142175307B4F49091E80082
:1002B0009570E1F39091E80092FD19C08093F100F0
:1002C000809154019091550101968F739927892B44
:1002D00019F48EEF8093E8008091540190915501BC
:1002E0000196909355018093540181E0089580E038
:1002F0000895EF92FF920F931F93CF93DF93F82E01
:10030000192FE62E042F81E0860F880F0E944B01E3
:1003100083E00E944B01CF2DD12FEC0EFD2EF11C5E
:10032000CE15DF05B9F007FF13C0FE0184910E94CE
:100330004B01182F80E00E944B01812321968111EF
:10034000EFCFDF91CF911F910F91FF90EF90089524
:100350008881EDCF81E0F5CFDF92EF92FF920F938E
:100360001F93CF93DF93D82E8A01EB017B01E40E1C
:10037000F51ECE15DF0559F0D7FE12C0FE0184919F
:100380000E944B0121968111F4CF0FEF1FEFC8019E
:10039000DF91CF911F910F91FF90EF90DF90089523
:1003A0008881EECF8091430181110BC010923F01F3
:1003B00081E08093400110924201109241018093AC
:1003C00043018FE391E008950F931F93CF93DF9341
:1003D0001F92CDB7DEB719820E94D201DC011296BE
:1003E0000D911C910115110589F0D801ED91FC9139
:1003F0000280F381E02DBE016F5F7F4FC801099538
:1004000097FD04C0F80100851185ECCF89810F901C
:10041000DF91CF911F910F910895DC01FB0112969E
:100420002C911297848195812817190641F49181A6
:100430008081813A31F49D7F81E0913009F080E044
:1004400008958132E1F79B3029F482811F968C93C5
:1004500081E008959A3099F7828150968C93F8CF75
:10046000EF92FF920F931F93CF93DF93FB012081B5
:10047000213889F52381223271F5DC0112964C91E5
:10048000248135814217130631F58C01FC01C385A7
:10049000D485F12CE12C209791F04C815D816A810B
:1004A0007B818E81811180E80E94AC018F3F98078B
:1004B00059F0E80EF91E0990D881C02DECCF81E0EB
:1004C000D8011F968C93C701DF91CF911F910F9197
:1004D000FF90EF90089590E080E0F6CFCF93DF9308
:1004E000CDB7DEB769970FB6F894DEBF0FBECDBFAC
:1004F000FC01DB018C918F5F8C939E012D5F3F4F40
:100500008DE0D9011D928A95E9F729E0298384E0DD
:100510008A8391E09D8383E08E832A8721E22B8763
:100520009C879D879F8722E2288B27E02B8B25E0E5
:100530002C8B8E8B20E430E0388F2F8B998F82812B
:100540008B8395858685998B8A8B838180688D8B3B
:1005500049E150E0BE016F5F7F4F80E00E94AC0137
:1005600069960FB6F894DEBF0FBECDBFDF91CF9175
:100570000895CF93DF9380913701811167C081E0A7
:1005800080932A0180932B0120E331E030932D01E9
:1005900020932C0110922F0110922E012AE031E0BD
:1005A00030932701209326011092320110923101DD
:1005B00010923401109233018093350180933601FB
:1005C00081EC809330010E94D201FC0181819091E5
:1005D0002A01482F490F5527551F483051059CF5D2
:1005E000A281B381109709F526E231E0338322839B
:1005F0002081209328018093290180912B01820F73
:10060000808320912C01A22FB0912D018A2F821B73
:100610008917C8F481813D91C82FD0E0C55BDE4FBA
:1006200038838F5F8183F2CFD90118962D913C9149
:10063000199721153105C1F726E231E019963C934F
:100640002E931897D5CF81E08093370186E291E011
:10065000DF91CF91089580917A00806480937A0031
:1006600080917A0086FDFCCF80917800909179008E
:1006700008954F925F926F927F928F929F92AF9266
:10068000BF92CF92DF92EF92FF920F931F93CF937F
:10069000DF93CDB7DEB74DB65EB68091FF012DB7C3
:1006A0003EB7281B31090FB6F8943EBF0FBE2DBFD1
:1006B0008DB79EB701963C018090A201912C80914C
:1006C0009E0190919F01D301FC019F01281B390BD2
:1006D000281539051CF421912D93F7CF8091A301A2
:1006E000882359F180919A0190919B0128E097FD10
:1006F00009C068E671E00E946F0C6DE270E00E9434
:100700006F0C262F80919C0190919D0168E097FDD0
:1007100008C068E671E00E946F0C6DE270E00E9414
:100720006F0CF301E80DF91D90E1699FB0011124F0
:10073000262B2083F40131964F015301A80CB91CDC
:10074000C090AA01D090AB01E090AC01F090AD0157
:100750000091A6011091A7012091A8013091A90153
:1007600040916E0150916F01609170017091710123
:100770008091A40181700E949E00880E991E5301F1
:10078000A80CB91CC090B201D090B301E090B401A4
:10079000F090B5010091AE011091AF012091B00130
:1007A0003091B101409172015091730160917401D7
:1007B000709175018091A401869581700E949E00C0
:1007C000880E991E5301A80CB91CC090BA01D09094
:1007D000BB01E090BC01F090BD010091B601109109
:1007E000B7012091B8013091B90140917601509143
:1007F000770160917801709179018091A40182FB69
:10080000882780F90E949E00880E991E5301A80C2B
:10081000B91CC090C201D090C301E090C401F09017
:10082000C5010091BE011091BF012091C00130911E
:10083000C10140917A0150917B0160917C017091DE
:100840007D018091A40183FB882780F90E949E008E
:10085000880E991E5301A80CB91CC090CA01D090F3
:10086000CB01E090CC01F090CD010091C601109138
:10087000C7012091C8013091C90140917E0150917A
:100880007F0160918001709181018091A401829526
:1008900081700E949E00880E991E5301A80CB91CFD
:1008A000C090D201D090D301E090D401F090D50156
:1008B0000091CE011091CF012091D0013091D10152
:1008C0004091820150918301609184017091850172
:1008D0008091A40185FB882780F90E949E00880EE4
:1008E000991E5301A80CB91CC090DA01D090DB010D
:1008F000E090DC01F090DD010091D6011091D7016C
:100900002091D8013091D90140918A0150918B01F9
:1009100060918C0170918D018091A50181700E9480
:100920009E00880E991E5301A80CB91CC090E201CC
:10093000D090E301E090E401F090E5010091DE0148
:100940001091DF012091E0013091E1014091860199
:100950005091870160918801709189018091A50172
:10096000869581700E949E00880E991E5301A80CE6
:10097000B91CC090EA01D090EB01E090EC01F0903E
:10098000ED010091E6011091E7012091E80130911D
:10099000E90140918E0150918F0160919001709119
:1009A00091018091A50182FB882780F90E949E0019
:1009B000880E991E5301A80CB91CC090F201D0906A
:1009C000F301E090F401F090F5010091EE01109137
:1009D000EF012091F0013091F1014091920150918D
:1009E000930160919401709195018091A50183FB21
:1009F000882780F90E949E00880D991D5301A80E3A
:100A0000B91EC090FA01D090FB01E090FC01F0907B
:100A1000FD010091F6011091F7012091F80130914C
:100A2000F901409196015091970160919801709160
:100A300099018091A501829581700E949E000E947B
:100A4000B9027C014091FF018091FE0150E04A0112
:100A5000FFEF8F1A9F0A2DB73EB7281939090FB635
:100A6000F8943EBF0FBE2DBF0DB71EB70F5F1F4FCF
:100A7000EDB7FEB78183B301C80101960E94C20D94
:100A8000F7018381C82E6894C6F890916D0199236F
:100A900009F479C090916C0190FF05C09091E0003D
:100AA00092609093E000712C9AEFF92EF82FF77076
:100AB000DF2E20E4B22E8072682E3AE3E32E8114FA
:100AC000910419F4772009F45AC08FB7F894D092A2
:100AD000E9009091E80095FD08C08FBFFA94FF20CF
:100AE00009F451C00E943301EACF9091F2002B2DFE
:100AF000291B8FBF222391F32815190411F00CF044
:100B0000282D3FB7F894D092E9008091E80085FD48
:100B100002C03FBFD4CF822F90E0881A990A662086
:100B200029F02150A0F01092F100FBCFF801C7FC92
:100B30000AC0215050F041914093F100FACF449106
:100B40004093F10031962150D0F7080F191F7720FC
:100B500021F0E092E800712CDCCF8091E80085FD67
:100B600008C0E092E800772473948114910489F21C
:100B7000F2CF8114910469F6E092E800CACF5D9843
:100B800084E680936B010FB6F8945EBE0FBE4DBE37
:100B9000DF91CF911F910F91FF90EF90DF90CF9059
:100BA000BF90AF909F908F907F906F905F904F908D
:100BB000089582E1E2E1F1E0DB0101900D928A9576
:100BC000E1F782E108951F920F920FB60F92112460
:100BD0002F933F938F939F93AF93BF938091630124
:100BE00090916401A0916501B0916601309162011C
:100BF00026E0230F2D3758F50296A11DB11D209335
:100C000062018093630190936401A0936501B093A6
:100C100066018091670190916801A0916901B0918E
:100C20006A010196A11DB11D80936701909368012F
:100C3000A0936901B0936A01BF91AF919F918F9189
:100C40003F912F910F900FBE0F901F90189529E89C
:100C5000230F0396A11DB11DD2CF1F920F920FB685
:100C60000F9211248F939F938091E1009091E10066
:100C7000937F9093E10083FF0FC01092E90091E011
:100C80009093EB001092EC0092E39093ED001092A1
:100C90006D0198E09093F00082FF22C093E0909362
:100CA000E9009091F200992319F09AE39093E800FB
:100CB00090916B01992341F090916B019150909329
:100CC0006B01911101C05D9A90915601992341F0F9
:100CD00090915601915090935601911101C0289A1C
:100CE00084FF18C08091E2008E7E81608093E200D4
:100CF0008091E1008F7E8093E10080916C018E7E77
:100D0000806180936C019F918F910F900FBE0F9027
:100D10001F90189580FFF7CF8091E2008E7E806152
:100D20008093E2008091E1008E7E8093E1008091CB
:100D30006C018E7E8160E5CF1F920F920FB60F92ED
:100D40001124CF92DF92EF92FF920F931F932F9374
:100D50003F934F935F936F937F938F939F93AF9343
:100D6000BF93EF93FF93CF93DF93CDB7DEB76C972D
:100D7000DEBFCDBF1092E9008091E80083FF30C054
:100D800089E0FE017596EE2EDF2E815029F09091BC
:100D9000F10090833196F9CF289884E6809356012C
:100DA00082EF8093E8008D8987FF39C09091E80039
:100DB00090FFFCCF982F907609F033C19E894F8920
:100DC000588D2F89F88C911131C0803861F5809150
:100DD00057018093F1001092F1008EEF8093E800AC
:100DE0006C960FB6F894DEBF0FBECDBFDF91CF91EA
:100DF000FF91EF91BF91AF919F918F917F916F91F3
:100E00005F914F913F912F911F910F91FF90EF9024
:100E1000DF90CF900F900FBE0F901F9018959EEF10
:100E20009093E800C7CF1092F100D5CF913059F4DC
:100E30008111D3CF4130510581F6809157018D7FCB
:100E400080935701CACF933049F48111C6CF413006
:100E5000510519F6809157018260F2CF953041F427
:100E60008091E80080FFFCCF20682093E300B5CF9D
:100E7000963009F0A8C00B8D1C8D82E01092E9001D
:100E80001092550110925401F8122EC01092530185
:100E9000109252010E94E4011F8299E09983FA8224
:100EA00091E09E8390EA988792E39987209154017C
:100EB00030915501275F3F4F3C832B838D831092E8
:100EC000E9001092550110925401109353010093C0
:100ED000520149E050E0BE016F5F7F4F80E00E9409
:100EE000AC010E94E40179CF1093530100935201A9
:100EF0000E94D201DC0112960D911C910115110581
:100F000009F4BAC0D801ED91FC910480F581E02D7F
:100F10006E2D7D2DC8010995009709F0A8C0F80134
:100F200000851185EBCFF3E0FF120EC08F89882377
:100F300009F440C0823061F440E863E182ED90E062
:100F40000E947901811149CF81E28093EB0048CF63
:100F5000813029F440E86FE082EC90E0F1CF8330FB
:100F600099F70E94D201DC011296ED90FC908E015F
:100F70000F5F1F4F6801E114F10479F0D701ED9183
:100F8000FC910680F781E02DB801C7010995080F93
:100F9000111DF701E084F184EECFD8011C92F60117
:100FA00001900020E9F73197BF016C197D0940E0FD
:100FB000C601C6CF6CEA70E0FB01449150E080E8C6
:100FC0000E94AC010ACF973009F4BECF983021F4CB
:100FD00081E08093F10001CF993009F0FECE83705B
:100FE00009F0B2CFECE4F1E081E031E096E3219149
:100FF000222371F08093E9003093EB00DF01119719
:101000002C912093EC009093ED008F5F873079F75F
:101010008EE78093EA001092EA008F8980936D0139
:10102000DCCE8B8D9C8D1092E900109255011092B0
:10103000540190935301809352010E94D201DC012C
:1010400012960D911C910115110509F47DCFD8015F
:10105000ED91FC910190F081E02D6E2D7D2DC80168
:1010600009958111BACEF80100851185ECCF1816CB
:1010700019060CF4B2CE68CFF1E0FF1254CF60EB4A
:1010800070E09ACF789484B5826084BD84B5816025
:1010900084BD85B5826085BD85B5816085BD809143
:1010A0006E00816080936E001092810080918100BB
:1010B00082608093810080918100816080938100B3
:1010C0008091800081608093800080919100826097
:1010D0008093910080919100816080939100809134
:1010E00090008160809390008091C1008460809323
:1010F000C1008091C10082608093C1008091C100D5
:1011000081608093C1008091C30081608093C3009F
:101110008091C00082608093C0008091C200816095
:101120008093C20080917A00846080937A008091DD
:101130007A00826080937A0080917A008E7F80931B
:101140007A0080917A00806880937A0010926D0115
:101150001092570110926C018091D70081608093AA
:10116000D70080EA8093D80089B58F7E89BD89B584
:10117000826089BD09B400FEFDCF0E9433018091D9
:10118000D8008F7C80618093D8008091E000807FC0
:101190008093E0008091E1008E7E8093E1008DE0FD
:1011A0008093E200559A209A8AB1807E8AB98BB1E9
:1011B000807E8BB980B38C7F80BB81B38C7F81BBF9
:1011C00080917E00836080937E0086E880937A0021
:1011D0001092A6011092A7011092A8011092A901E5
:1011E0008FEF93E0A0E0B0E08093AA019093AB0171
:1011F000A093AC01B093AD011092AE011092AF017B
:101200001092B0011092B1018093B2019093B3019A
:10121000A093B401B093B5011092A0010E943903CC
:10122000CC24C394D12C812C912C5401839430E490
:10123000432E41E4542E50E0652E50E0752E2FB71A
:10124000F8948091630190916401A0916501B0913F
:1012500066012FBF40915E0150915F016091600176
:10126000709161018C019D01041B150B260B370B3E
:10127000B901A801423051056105710508F49FC00C
:1012800080935E0190935F01A0936001B093610130
:10129000C9B1C095CF7189E5E82E81E0F82E10E044
:1012A00000E0D0E0602F802FF70190819E01002E9A
:1012B00002C0359527950A94E2F720FF87C0953044
:1012C00010F49F5F9083F7012081909158012530A1
:1012D00009F081C09601082E01C0220F0A94EAF796
:1012E000292B209358019091A1012091580130E0C1
:1012F000082E02C0359527950A94E2F720FD76C0A6
:101300006917B8F4E0919E01F0919F01A501940145
:1013100004C0220F331F441F551F8A95D2F7922F06
:1013200090958081892380838091A00181110E9402
:1013300039030F5F1F4F3FEFE31AF30A0530110522
:1013400009F0B0CF40927C0080917B008F7D80932C
:101350007B000E942B030E942B03B0E0A0E080934F
:101360006E0190936F01A0937001B0937101809111
:10137000A00181110E94390350927C0080917B0072
:101380008F7D80937B000E942B030E942B03B0E093
:10139000A0E08093720190937301A0937401B093C5
:1013A00075018091A00181110E94390380916D0126
:1013B000882329F080916C0180FF0E943903611419
:1013C000710409F43CCF0E94000039CF992309F43D
:1013D0007ACF915077CF211186CF9601082E01C088
:1013E000220F0A94EAF7209529237BCF691708F08A
:1013F000A0CFE0919E01F0919F01A501940104C04E
:10140000220F331F441F551F8A95D2F7C90120812F
:10141000822B89CFEF92FF920F931F93CF93DF938D
:10142000CDB7DEB7C659D1090FB6F894DEBF0FBEEF
:10143000CDBF10929F0110929E011092A2011092B6
:10144000A6011092A7011092A8011092A9018FEF96
:1014500093E0A0E0B0E08093AA019093AB01A09349
:10146000AC01B093AD011092AE011092AF01109299
:10147000B0011092B1018093B2019093B301A09397
:10148000B401B093B5011092B6011092B701109259
:10149000B8011092B9018093BA019093BB01A09357
:1014A000BC01B093BD011092BE011092BF01109219
:1014B000C0011092C1018093C2019093C301A09317
:1014C000C401B093C5011092C6011092C7011092D9
:1014D000C8011092C9018093CA019093CB01A093D7
:1014E000CC01B093CD011092CE011092CF01109299
:1014F000D0011092D1018093D2019093D301A09397
:10150000D401B093D5011092D6011092D701109258
:10151000D8011092D9018093DA019093DB01A09356
:10152000DC01B093DD011092DE011092DF01109218
:10153000E0011092E1018093E2019093E301A09316
:10154000E401B093E5011092E6011092E7011092D8
:10155000E8011092E9018093EA019093EB01A093D6
:10156000EC01B093ED011092EE011092EF01109298
:10157000F0011092F1018093F2019093F301A09396
:10158000F401B093F5011092F6011092F701109258
:10159000F8011092F9018093FA019093FB01A09356
:1015A000FC01B093FD0133E03093FE0195E0909390
:1015B000A1011092A3013093A4011092A501998377
:1015C00081E08A8329E02B8344E04C83E1EAED83C8
:1015D0008E8345E84F83388799872A8749E14B876F
:1015E0008C8749E24D879E87F5E1FF87188A45E29F
:1015F000498B8A8B75E77B8B8C8B65E96D8B9E8B1A
:1016000045E54F8B188E45E6498F1A8E51E85B8F62
:1016100042E04C8F7D8F8E8F6F8F38A359A33AA3F2
:101620009BA38CA32DA38EA3FFA318A687E289A753
:101630008FEF8AA78BA71CA61DA67EA780E18FA788
:1016400068AB49ABEAAB1BAA2CAB80E38DAB2EABEE
:1016500081E38FAB58AF49AF80EC8AAF8BAF8BE3A0
:1016600090E00E949D0C7C018BE3FE013196D70136
:1016700001900D928A95E1F787E090E00E949D0C21
:101680008C01DC0111961C921E921396FC92EE9234
:1016900012978BE390E015969C938E931497169671
:1016A0001C920E94B902FC01A385B485109709F031
:1016B000A3C01487038785859685D80114962D913C
:1016C0003C91820F931F968785879091A101892F66
:1016D000869586958695977009F096C08093A201AD
:1016E0001091A201812F90E0009711F481E090E029
:1016F0000E949D0C90939F0180939E0181E09091A8
:10170000A301911101C080E01C5F810F8093FF0154
:1017100010926E0110926F0110927001109271017F
:10172000109272011092730110927401109275015F
:10173000109276011092770110927801109279013F
:1017400010927A0110927B0110927C0110927D011F
:1017500010927E0110927F011092800110928101FF
:1017600010928201109283011092840110928501DF
:1017700010928601109287011092880110928901BF
:1017800010928A0110928B0110928C0110928D019F
:1017900010928E0110928F0110929001109291017F
:1017A000109292011092930110929401109295015F
:1017B000109296011092970110929801109299013F
:1017C0008FEF9FEF90939B0180939A0190939D01DF
:1017D00080939C0190E080E02091A20128171906D7
:1017E000A9F0A4F0E0919E01F0919F01E80FF91F8C
:1017F00010820196F1CFDC018D919C911197009799
:10180000D1F70D931C9357CF8F5F68CFCA56DF4F28
:101810000FB6F894DEBF0FBECDBFDF91CF911F9101
:101820000F91FF90EF900895052E97FB1EF4009402
:101830000E942B0C57FD07D00E943E0C07FC03D0E2
:101840004EF40C942B0C50954095309521953F4FBC
:101850004F4F5F4F089590958095709561957F4F9C
:101860008F4F9F4F08950E94600CA59F900DB49FCD
:10187000900DA49F800D911D11240895A1E21A2EB0
:10188000AA1BBB1BFD010DC0AA1FBB1FEE1FFF1F24
:10189000A217B307E407F50720F0A21BB30BE40B74
:1018A000F50B661F771F881F991F1A9469F76095BB
:1018B0007095809590959B01AC01BD01CF01089575
:1018C000A29FB001B39FC001A39F700D811D112481
:1018D000911DB29F700D811D1124911D089597FBDC
:1018E000072E16F4009407D077FD09D00E94830CD0
:1018F00007FC05D03EF4909581959F4F0895709513
:1019000061957F4F0895AA1BBB1B51E107C0AA1F19
:10191000BB1FA617B70710F0A61BB70B881F991F90
:101920005A95A9F780959095BC01CD010895EE0FC9
:10193000FF1F0590F491E02D09940F931F93CF930F
:10194000DF938230910510F482E090E0E091020292
:10195000F091030230E020E0B0E0A0E0309799F48D
:101960002115310509F44AC0281B390B24303105F3
:10197000D8F58A819B816115710589F1FB019383FB
:101980008283FE0111C04081518102811381481779
:101990005907E0F04817590799F4109761F012962B
:1019A0000C93129713961C933296CF01DF91CF912F
:1019B0001F910F9108950093020210930302F4CF38
:1019C0002115310551F04217530738F0A901DB0109
:1019D0009A01BD01DF01F801C1CFEF01F9CF90936A
:1019E000030280930202CDCFFE01E20FF31F819329
:1019F00091932250310939832883D7CF2091000257
:101A000030910102232B41F4209102013091030116
:101A100030930102209300022091000130910101D6
:101A20002115310541F42DB73EB740910401509185
:101A30000501241B350BE0910002F0910102E21731
:101A4000F307A0F42E1B3F0B2817390778F0AC01E1
:101A50004E5F5F4F2417350748F04E0F5F1F5093BE
:101A6000010240930002819391939FCFF0E0E0E068
:101A70009CCFCF93DF930097E9F0FC01329713825C
:101A80001282A0910202B0910302ED0130E020E049
:101A90001097A1F420813181820F931F20910002C1
:101AA000309101022817390709F061C0F093010253
:101AB000E0930002DF91CF910895EA01CE17DF078E
:101AC000E8F54A815B819E0141155105B1F7E901B5
:101AD000FB83EA8349915991C40FD51FEC17FD0789
:101AE00061F4808191810296840F951FE9019983A9
:101AF0008883828193819B838A83F0E0E0E0129661
:101B00008D919C9113970097B9F52D913C91119768
:101B1000CD010296820F931F2091000230910102A5
:101B20002817390739F6309751F5109203021092B1
:101B30000202B0930102A0930002BCCFD383C28300
:101B400040815181840F951FC817D90761F44E5FFA
:101B50005F4F88819981480F591F518340838A8143
:101B60009B81938382832115310509F0B0CFF093D7
:101B70000302E09302029ECFFD01DC01C0CF13827D
:101B80001282D7CFFB01DC0102C001900D924150BF
:0A1B90005040D8F70895F894FFCFF5
:101B9A00000004028000000000000D026E02300204
:101BAA00D9056B696361642D746F6F6C732E6F72E4
:061BBA00673A3033000021
:00000001FF
