:100000000C9434000C945A000C9451000C94510040
:100010000C9451000C9451000C9451000C9451001C
:100020000C9451000C9451000C9451000C9451000C
:100030000C9451000C9451000C9451000C945100FC
:100040000C9451000C9451000C9451000C945100EC
:100050000C9451000C9451000C9451000C945100DC
:100060000C9451000C94510011241FBECFEFD8E026
:10007000DEBFCDBF11E0A0E0B1E0E2E6F3E002C0F8
:1000800005900D92A831B107D9F721E0A8E1B1E0C0
:1000900001C01D92A931B207E1F70E9481000C94C2
:1000A000AF010C9400008BB18F768BB985B18C7F3A
:1000B00085B908951F920F920FB60F9211242F93B6
:1000C0003F934F935F936F937F938F939F93AF93E0
:1000D000BF93EF93FF930E94530081E08093180138
:1000E000FF91EF91BF91AF919F918F917F916F9110
:1000F0005F914F913F912F910F900FBE0F901F90E6
:100100001895F89414BE0FB6F894A89580916000E5
:10011000886180936000109260000FBED0E8D09399
:100120006100109261001BB815B818B889EF8AB940
:10013000C3E0C4B917B80E945300C4BD81E085BDB7
:10014000C093B0008093B10083E480937C0086E884
:1001500080937A0088E080937E00D0BF82E0809315
:100160006900789488E19CE00FB6F894A895809394
:1001700060000FBE90936000D0E0C0E0A12C0FEFB4
:10018000B12CF12C10E0E12CDD24D39423E0C22E1D
:10019000A895359B17C00E9453001DBA10921801F4
:1001A000589810E0EE24E39480911801882319F008
:1001B0000E945300589A87EC90E00197F1F700C035
:1001C0000000E6CF1111C0C0EE2009F4BBC0809141
:1001D00018018111E9CF299A8FE097E20197F1F791
:1001E00000C0000086B11A9B07C04A9B05C08770FB
:1001F0009FEF980F963030F0D09218010E94530074
:10020000E12CD2CFDCBADDBAE12CD0E0C0E00FEFB8
:1002100090911801F82E911140C096B19770F92E67
:100220001A9B0CC09FEF9F0D963040F4F81641F0DA
:10023000E82FF0E0E050FF4F90819F11D09218011D
:10024000A39490E1A91217C090917A0090649093C2
:100250007A0090917A0096FDFCCF20917800309141
:10026000790020343105D8F094E0369527959A9599
:10027000E1F7B22EA12CF81214C0BB2091F0219608
:10028000C03DE7E0DE0710F0D09218019091180110
:10029000992351F00E9453000B2D11E085CFA12C22
:1002A000B12CD0E0C0E0F2CFF81202C00B15A9F3D8
:1002B0004FB7F8948BB18F768BB92898C4BCC09295
:1002C000B0008BB187798BB98091180181112CC056
:1002D0008FEF8F0D863040F5BB2031F12F2D30E0B0
:1002E000F901E05FFE4F8081285F3E4FF901908168
:1002F000B7BCB8BCB092B400811118C02091B00056
:1003000020622093B000F5E0FA95F1F7000081112A
:1003100016C05C9A813011F0913009F45F9A8230F6
:1003200011F0923009F4289A4FBFB6CF813071F4A2
:1003300024B5206224BDE7CF24B52068FBCF9923E4
:1003400041F3E8CF1E2D30CF8F2D62CF8230A1F345
:10035000E5E0EA95F1F700009923D9F2DDCFF894B2
:02036000FFCFCD
:100362000005030106040200FF010001020200FF72
:08037200FF000202010001FF7F
:00000001FF
