:100000000C9474000C949C000C949C000C949C0028
:100010000C949C000C949C000C949C000C949C00F0
:100020000C949C000C949C000C9438060C94C6060E
:100030000C949C000C949C000C949C000C949C00D0
:100040000C949C000C949C000C949C000C949C00C0
:100050000C949C000C949C000C949C000C94EE0559
:100060000C949C000C949C000C949C000C949C00A0
:100070000C949C000C949C000C949C000C949C0090
:100080000C949C000C949C000C949C000C949C0080
:100090000C949C000C949C000C949C000C949C0070
:1000A0000C949C000C949C000C949C000403090488
:1000B0001201000200000040C016DC27000101020E
:1000C00003016B696361642D746F6F6C732E6F72C3
:1000D00067004B435420555342204A6F797374692B
:1000E000636B20303300640A11241FBECFEFDAE0C7
:1000F000DEBFCDBF11E0A0E0B1E0EEE4FCE102C064
:1001000005900D92A632B107D9F722E0A6E2B1E040
:1001100001C01D92A530B207E1F710E0C4E7D0E0BE
:1001200004C02197FE010E94F10CC337D107C9F723
:100130000E946C080C94250E0C9400004F925F9264
:100140006F927F928F929F92AF92BF92CF92DF92E7
:10015000EF92FF920F931F93CF93DF93E5010C155E
:100160001D052E053F050CF051C02801390146013F
:100170005701882309F44FC0CA01DB018415950596
:10018000A605B70514F4D301C201B501A401881571
:100190009905AA05BB0514F4AC01BD01C016D10632
:1001A000E206F30664F4D501C401841B950BA60B8B
:1001B000B70BAC01BD01440D551D661D771D9A019D
:1001C000AB012419350946095709AFEFBFEF0E946B
:1001D0008D0CA501940124193509460957090E947F
:1001E0006E0C2883398382E090E0DF91CF911F91DC
:1001F0000F91FF90EF90DF90CF90BF90AF909F90C6
:100200008F907F906F905F904F90089526013701F7
:1002100048015901AECF90E080E0E7CF3FB7F894B6
:100220008091680190916901A0916A01B0916B0180
:1002300026B5A89B05C02F3F19F00196A11DB11D41
:100240003FBFBA2FA92F982F8827BC01CD01620F7D
:10025000711D811D911D43E0660F771F881F991F37
:100260004A95D1F70895CF92DF92EF92FF920E94C4
:100270000E016B017C010E940E016C197D098E0933
:100280009F09683E734081059105A8F3FF90EF90A8
:10029000DF90CF900895E2EEF0E080818E7E816065
:1002A00080831092580110926D010895409154017D
:1002B000509155012091520130915301421753073B
:1002C000B4F49091E8009570E1F39091E80092FD0C
:1002D00019C08093F10080915401909155010196CD
:1002E0008F739927892B19F48EEF8093E800809102
:1002F00054019091550101969093550180935401BA
:1003000081E0089580E00895EF92FF920F931F938C
:10031000CF93DF93F82E192FE62E042F81E0860F5E
:10032000880F0E94560183E00E945601CF2DD12FE5
:10033000EC0EFD2EF11CCE15DF05B9F007FF13C042
:10034000FE0184910E945601182F80E00E94560100
:10035000812321968111EFCFDF91CF911F910F91D2
:10036000FF90EF9008958881EDCF81E0F5CFDF9287
:10037000EF92FF920F931F93CF93DF93D82E8A01B2
:10038000EB017B01E40EF51ECE15DF0559F0D7FE1B
:1003900012C0FE0184910E94560121968111F4CF72
:1003A0000FEF1FEFC801DF91CF911F910F91FF90C9
:1003B000EF90DF9008958881EECF80914301811105
:1003C0000BC010923F0181E08093400110924201E6
:1003D00010924101809343018FE391E008950F93C0
:1003E0001F93CF93DF931F92CDB7DEB719820E9480
:1003F000DD01DC0112960D911C910115110589F0AA
:10040000D801ED91FC910280F381E02DBE016F5F78
:100410007F4FC801099597FD04C0F801008511853B
:10042000ECCF89810F90DF91CF911F910F910895AB
:10043000DC01FB0112962C9112978481958128177B
:10044000190641F491818081813A31F49D7F81E0E8
:10045000913009F080E008958132E1F79B3029F472
:1004600082811F968C9381E008959A3099F782815A
:1004700050968C93F8CFEF92FF920F931F93CF93E8
:10048000DF93FB012081213889F52381223271F528
:10049000DC0112964C91248135814217130631F507
:1004A0008C01FC01C385D485F12CE12C209791F0BF
:1004B0004C815D816A817B818E81811180E80E94FF
:1004C000B7018F3F980759F0E80EF91E0990D881BF
:1004D000C02DECCF81E0D8011F968C93C701DF912E
:1004E000CF911F910F91FF90EF90089590E080E0E1
:1004F000F6CFCF93DF93CDB7DEB769970FB6F894F9
:10050000DEBF0FBECDBFFC01DB018C918F5F8C93F2
:100510009E012D5F3F4F8DE0D9011D928A95E9F72D
:1005200029E0298384E08A8391E09D8383E08E83A0
:100530002A8721E22B879C879D879F8722E2288B31
:1005400027E02B8B25E02C8B8E8B20E430E0388F3E
:100550002F8B998F82818B8395858685998B8A8B4A
:10056000838180688D8B49E150E0BE016F5F7F4FD2
:1005700080E00E94B70169960FB6F894DEBF0FBE07
:10058000CDBFDF91CF910895CF93DF938091370155
:10059000811167C081E080932A0180932B0120E3C1
:1005A00031E030932D0120932C0110922F011092F5
:1005B0002E012AE031E0309327012093260110928A
:1005C0003201109231011092340110923301809364
:1005D00035018093360181EC809330010E94DD016A
:1005E000FC01818190912A01482F490F5527551F01
:1005F000483051059CF5A281B381109709F526E298
:1006000031E03383228320812093280180932901C4
:1006100080912B01820F808320912C01A22FB09119
:100620002D018A2F821B8917C8F481813D91C82F23
:10063000D0E0C55BDE4F38838F5F8183F2CFD90175
:1006400018962D913C91199721153105C1F726E295
:1006500031E019963C932E931897D5CF81E0809383
:10066000370186E291E0DF91CF91089580917A0081
:10067000806480937A0080917A0086FDFCCF80911F
:1006800078009091790008954F925F926F927F92D7
:100690008F929F92AF92BF92CF92DF92EF92FF9292
:1006A0000F931F93CF93DF93CDB7DEB74DB65EB6F2
:1006B000809100022DB73EB7281B31090FB6F89480
:1006C0003EBF0FBE2DBF8DB79EB701963C018090F7
:1006D000A301912C80919F019091A001D301FC0175
:1006E0009F01281B390B281539051CF421912D93E6
:1006F000F7CF8091A401882359F180919B019091BB
:100700009C0128E097FD09C068E671E00E94C90CD1
:100710006DE270E00E94C90C262F80919D0190919E
:100720009E0168E097FD08C068E671E00E94C90C70
:100730006DE270E00E94C90CF301E80DF91D90E133
:10074000699FB0011124262B2083F40131964F01BB
:100750005301A80CB91CC090AB01D090AC01E09043
:10076000AD01F090AE010091A7011091A801209178
:10077000A9013091AA0140916F01509170016091DF
:100780007101709172018091A50181700E949E009B
:10079000880E991E5301A80CB91CC090B301D090CB
:1007A000B401E090B501F090B6010091AF01109155
:1007B000B0012091B1013091B2014091730150918B
:1007C000740160917501709176018091A501869503
:1007D00081700E949E00880E991E5301A80CB91CBE
:1007E000C090BB01D090BC01E090BD01F090BE0173
:1007F0000091B7011091B8012091B9013091BA016F
:1008000040917701509178016091790170917A015E
:100810008091A50182FB882780F90E949E00880EA6
:10082000991E5301A80CB91CC090C301D090C401FB
:10083000E090C501F090C6010091BF011091C00188
:100840002091C1013091C20140917B0150917C0106
:1008500060917D0170917E018091A50183FB8827C5
:1008600080F90E949E00880E991E5301A80CB91CA5
:10087000C090CB01D090CC01E090CD01F090CE01A2
:100880000091C7011091C8012091C9013091CA019E
:1008900040917F01509180016091810170918201AE
:1008A0008091A501829581700E949E00880E991EFC
:1008B0005301A80CB91CC090D301D090D401E09092
:1008C000D501F090D6010091CF011091D001209177
:1008D000D1013091D2014091830150918401609106
:1008E0008501709186018091A50185FB882780F99B
:1008F0000E949E00880E991E5301A80CB91CC0903E
:10090000DB01D090DC01E090DD01F090DE01009190
:10091000D7011091D8012091D9013091DA0140918D
:100920008B0150918C0160918D0170918E018091AD
:10093000A60181700E949E00880E991E5301A80C8A
:10094000B91CC090E301D090E401E090E501F09083
:10095000E6010091DF011091E0012091E101309169
:10096000E201409187015091880160918901709165
:100970008A018091A601869581700E949E00880E52
:10098000991E5301A80CB91CC090EB01D090EC014A
:10099000E090ED01F090EE010091E7011091E80187
:1009A0002091E9013091EA0140918F01509190012D
:1009B00060919101709192018091A60182FB88273C
:1009C00080F90E949E00880E991E5301A80CB91C44
:1009D000C090F301D090F401E090F501F090F601A1
:1009E0000091EF011091F0012091F1013091F2019D
:1009F00040919301509194016091950170919601FD
:100A00008091A60183FB882780F90E949E00880DB3
:100A1000991D5301A80EB91EC090FB01D090FC0196
:100A2000E090FD01F090FE010091F7011091F801B6
:100A30002091F9013091FA0140919701509198016C
:100A40006091990170919A018091A60182958170BF
:100A50000E949E000E94C4027C014091000280918D
:100A6000FF0150E04A01FFEF8F1A9F0A2DB73EB7F2
:100A7000281939090FB6F8943EBF0FBE2DBF0DB728
:100A80001EB70F5F1F4FEDB7FEB78183B301C801DB
:100A900001960E941C0EF7018381C82E6894C6F847
:100AA00090916E01992309F479C090916D0190FFA6
:100AB00005C09091E00092609093E000712C9AEF55
:100AC000F92EF82FF770DF2E20E4B22E8072682EF8
:100AD0003AE3E32E8114910419F4772009F45AC003
:100AE0008FB7F894D092E9009091E80095FD08C086
:100AF0008FBFFA94FF2009F451C00E943301EACF5E
:100B00009091F2002B2D291B8FBF222391F32815E2
:100B1000190411F00CF0282D3FB7F894D092E90099
:100B20008091E80085FD02C03FBFD4CF822F90E0C6
:100B3000881A990A662029F02150A0F01092F1003D
:100B4000FBCFF801C7FC0AC0215050F041914093FF
:100B5000F100FACF44914093F10031962150D0F743
:100B6000080F191F772021F0E092E800712CDCCFEC
:100B70008091E80085FD08C0E092E8007724739436
:100B80008114910489F2F2CF8114910469F6E09204
:100B9000E800CACF5D9884E680936C010FB6F894A4
:100BA0005EBE0FBE4DBEDF91CF911F910F91FF90A2
:100BB000EF90DF90CF90BF90AF909F908F907F90FD
:100BC0006F905F904F90089582E1E2E1F1E0DB01E8
:100BD00001900D928A95E1F782E108951F920F929C
:100BE0000FB60F9211242F933F938F939F93AF9340
:100BF000BF938091640190916501A0916601B091CD
:100C000067013091630126E0230F2D3758F50296D6
:100C1000A11DB11D20936301809364019093650130
:100C2000A0936601B093670180916801909169017A
:100C3000A0916A01B0916B010196A11DB11D809335
:100C4000680190936901A0936A01B0936B01BF9111
:100C5000AF919F918F913F912F910F900FBE0F9069
:100C60001F90189529E8230F0396A11DB11DD2CF1F
:100C70001F920F920FB60F9211242F933F934F9311
:100C80005F936F937F938F939F93AF93BF93CF9314
:100C9000DF93EF93FF93C091E10081E78093E10040
:100CA000DC2FD870C3FF11C00E944B011092E900E5
:100CB00081E08093EB001092EC0082E38093ED00E2
:100CC00010926E0188E08093F000C2FF22C083E0A2
:100CD0008093E9008091F200882319F08AE38093E1
:100CE000E80080916C01882341F080916C01815073
:100CF00080936C01811101C05D9A80915601882317
:100D000041F080915601815080935601811101C0BC
:100D1000289AD1110FC0C4FF20C08091E2008E7EBE
:100D20008093E20081E080936D018093580189B542
:100D3000826089BDFF91EF91DF91CF91BF91AF911B
:100D40009F918F917F916F915F914F913F912F91E3
:100D50000F900FBE0F901F901895C0FFEBCF8091A2
:100D6000E2008E7E80618093E2008CE68093E10059
:100D700081E080936D01109258018091D8008F7CA2
:100D800080628093D80089B58D7FD3CF1F920F9258
:100D90000FB60F921124CF92DF92EF92FF920F9332
:100DA0001F932F933F934F935F936F937F938F93F3
:100DB0009F93AF93BF93EF93FF93CF93DF93CDB701
:100DC000DEB76C97DEBFCDBF1092E9008091E800DE
:100DD00083FF30C089E0FE017596EE2EDF2E815034
:100DE00029F09091F10090833196F9CF289884E60C
:100DF0008093560182EF8093E8008D8987FF39C088
:100E00009091E80090FFFCCF982F907609F033C1C5
:100E10009E894F89588D2F89F88C911131C0803867
:100E200061F5809157018093F1001092F1008EEFEF
:100E30008093E8006C960FB6F894DEBF0FBECDBF6E
:100E4000DF91CF91FF91EF91BF91AF919F918F91E2
:100E50007F916F915F914F913F912F911F910F91D2
:100E6000FF90EF90DF90CF900F900FBE0F901F90EC
:100E700018959EEF9093E800C7CF1092F100D5CF60
:100E8000913059F48111D3CF4130510581F68091D1
:100E900057018D7F80935701CACF933049F4811158
:100EA000C6CF4130510519F6809157018260F2CFCB
:100EB000953041F48091E80080FFFCCF20682093BA
:100EC000E300B5CF963009F0A8C00B8D1C8D82E0F1
:100ED0001092E9001092550110925401F8122EC0A0
:100EE00010925301109252010E94EF011F8299E06B
:100EF0009983FA8291E09E8390EA988792E399879A
:100F00002091540130915501275F3F4F3C832B8343
:100F10008D831092E90010925501109254011093A4
:100F200053010093520149E050E0BE016F5F7F4FD3
:100F300080E00E94B7010E94EF0179CF1093530126
:100F4000009352010E94DD01DC0112960D911C916B
:100F50000115110509F4BAC0D801ED91FC91048086
:100F6000F581E02D6E2D7D2DC8010995009709F0C2
:100F7000A8C0F80100851185EBCFF3E0FF120EC089
:100F80008F89882309F440C0823061F440E863E12E
:100F900082ED90E00E948401811149CF81E280932B
:100FA000EB0048CF813029F440E86FE082EC90E01C
:100FB000F1CF833099F70E94DD01DC011296ED90AC
:100FC000FC908E010F5F1F4F6801E114F10479F06E
:100FD000D701ED91FC910680F781E02DB801C701A2
:100FE0000995080F111DF701E084F184EECFD801B7
:100FF0001C92F60101900020E9F73197BF016C19AE
:101000007D0940E0C601C6CF6CEA70E0FB01449167
:1010100050E080E80E94B7010ACF973009F4BECFB4
:10102000983021F481E08093F10001CF993009F0EC
:10103000FECE837009F0B2CFECE4F1E081E031E064
:1010400096E32191222371F08093E9003093EB0025
:10105000DF0111972C912093EC009093ED008F5FAE
:10106000873079F78EE78093EA001092EA008F8943
:1010700080936E01DCCE8B8D9C8D1092E9001092D6
:1010800055011092540190935301809352010E9494
:10109000DD01DC0112960D911C910115110509F479
:1010A0007DCFD801ED91FC910190F081E02D6E2D66
:1010B0007D2DC80109958111BACEF80100851185F1
:1010C000ECCF181619060CF4B2CE68CFF1E0FF127F
:1010D00054CF60EB70E09ACF789484B5826084BD81
:1010E00084B5816084BD85B5826085BD85B581602C
:1010F00085BD80916E00816080936E0010928100AA
:101100008091810082608093810080918100816064
:101110008093810080918000816080938000809125
:101120009100826080939100809191008160809312
:101130009100809190008160809390008091C10027
:1011400084608093C1008091C10082608093C1005F
:101150008091C10081608093C1008091C300816053
:101160008093C3008091C00082608093C000809112
:10117000C20081608093C20080917A008460809375
:101180007A0080917A00826080937A0080917A0060
:101190008E7F80937A0080917A00806880937A00B5
:1011A00010926E01109257010E944B018091D7005E
:1011B00081608093D70080EA8093D80089B58F7EC4
:1011C00089BD89B5826089BD09B400FEFDCF0E944A
:1011D00033018091D8008F7C80618093D80080910A
:1011E000E000807F8093E0008CE68093E1008DE05A
:1011F0008093E200559A209A8AB1807E8AB98BB199
:10120000807E8BB980B38C7F80BB81B38C7F81BBA8
:1012100080917E00836080937E0086E880937A00D0
:101220001092A7011092A8011092A9011092AA0190
:101230008FEF93E0A0E0B0E08093AB019093AC011E
:10124000A093AD01B093AE011092AF011092B00126
:101250001092B1011092B2018093B3019093B40146
:10126000A093B501B093B6011092A1010E9444036E
:10127000CC24C394D12C812C912C5401839450E024
:10128000652E50E0752E60E1262E3324339490E4D1
:10129000492E21E4522E9FB7F8948091580188235B
:1012A00001F109B400FE1DC08091D8008F7C8061DF
:1012B0008093D8000DE60093E100109258018091D0
:1012C000E100897009F4D9C030926D018091E1008C
:1012D00083FD10926E018091E2008E7E816080938A
:1012E000E2009FBF2FB7F89480916401909165014F
:1012F000A0916601B09167012FBF40915F015091AD
:10130000600160916101709162018C019D01041B7B
:10131000150B260B370BB901A801423051056105A9
:10132000710508F4A3C080935F0190936001A093BE
:101330006101B0936201C9B1C095CF718AE5E82E11
:1013400081E0F82E10E000E0D0E0902F802FF70130
:1013500040819E01002E02C0359527950A94E2F740
:1013600020FF8EC0453010F44F5F4083F70120818D
:1013700060915901253009F088C09601082E01C0FE
:10138000220F0A94EAF7262B209359014091A201DB
:101390002091590130E0082E02C0359527950A9416
:1013A000E2F720FD7DC09417B8F4E0919F01F09121
:1013B000A001A501940104C0220F331F441F551F33
:1013C0008A95D2F7922F909580818923808380918E
:1013D000A10181110E9444030F5F1F4F3FEFE31AE9
:1013E000F30A0530110509F0B0CF40927C008091DE
:1013F0007B008F7D80937B000E9436030E94360322
:10140000B0E0A0E080936F0190937001A093710110
:10141000B09372018091A10181110E944403509206
:101420007C0080917B008F7D80937B000E9436033F
:101430000E943603B0E0A0E08093730190937401A2
:10144000A0937501B09376018091A10181110E9452
:10145000440380916E01882349F0809158018111E5
:1014600005C080916D0180FF0E94440361147104E6
:1014700009F411CF0E9400000ACF20926D012BCFFA
:10148000442309F473CF415070CF21117FCF9601CF
:10149000082E01C0220F0A94EAF72095262374CF64
:1014A000941708F099CFE0919F01F091A001A50158
:1014B000940104C0220F331F441F551F8A95D2F791
:1014C000C9012081822B82CFEF92FF920F931F934D
:1014D000CF93DF93CDB7DEB7C659D1090FB6F894D5
:1014E000DEBF0FBECDBF1092A00110929F011092DF
:1014F000A3011092A7011092A8011092A9011092C5
:10150000AA018FEF93E0A0E0B0E08093AB0190934D
:10151000AC01A093AD01B093AE011092AF01109257
:10152000B0011092B1011092B2018093B301909377
:10153000B401A093B501B093B6011092B701109217
:10154000B8011092B9011092BA018093BB01909337
:10155000BC01A093BD01B093BE011092BF011092D7
:10156000C0011092C1011092C2018093C3019093F7
:10157000C401A093C501B093C6011092C701109297
:10158000C8011092C9011092CA018093CB019093B7
:10159000CC01A093CD01B093CE011092CF01109257
:1015A000D0011092D1011092D2018093D301909377
:1015B000D401A093D501B093D6011092D701109217
:1015C000D8011092D9011092DA018093DB01909337
:1015D000DC01A093DD01B093DE011092DF011092D7
:1015E000E0011092E1011092E2018093E3019093F7
:1015F000E401A093E501B093E6011092E701109297
:10160000E8011092E9011092EA018093EB019093B6
:10161000EC01A093ED01B093EE011092EF01109256
:10162000F0011092F1011092F2018093F301909376
:10163000F401A093F501B093F6011092F701109216
:10164000F8011092F9011092FA018093FB01909336
:10165000FC01A093FD01B093FE0133E03093FF0144
:1016600095E09093A2011092A4013093A5011092ED
:10167000A601998381E08A8329E02B8344E04C838F
:10168000E1EAED838E8345E84F83388799872A877F
:1016900049E14B878C8749E24D879E87F5E1FF87BB
:1016A000188A45E2498B8A8B75E77B8B8C8B65E9C1
:1016B0006D8B9E8B45E54F8B188E45E6498F1A8EB4
:1016C00051E85B8F42E04C8F7D8F8E8F6F8F38A3F8
:1016D00059A33AA39BA38CA32DA38EA3FFA318A663
:1016E00087E289A78FEF8AA78BA71CA61DA67EA7D6
:1016F00080E18FA768AB49ABEAAB1BAA2CAB80E3B8
:101700008DAB2EAB81E38FAB58AF49AF80EC8AAF86
:101710008BAF8BE390E00E94F70C7C018BE3FE0122
:101720003196D70101900D928A95E1F787E090E01C
:101730000E94F70C8C01DC0111961C921E921396EC
:10174000FC92EE9212978BE390E015969C938E9309
:10175000149716961C920E94C402FC01A385B485BE
:10176000109709F0A3C01487038785859685D80153
:1017700014962D913C91820F931F968785879091A7
:10178000A201892F869586958695977009F096C057
:101790008093A3011091A301812F90E0009711F491
:1017A00081E090E00E94F70C9093A00180939F014C
:1017B00081E09091A401911101C080E01C5F810F34
:1017C0008093000210926F011092700110927101CB
:1017D00010927201109273011092740110927501AF
:1017E000109276011092770110927801109279018F
:1017F00010927A0110927B0110927C0110927D016F
:1018000010927E0110927F0110928001109281014E
:10181000109282011092830110928401109285012E
:10182000109286011092870110928801109289010E
:1018300010928A0110928B0110928C0110928D01EE
:1018400010928E0110928F011092900110929101CE
:1018500010929201109293011092940110929501AE
:10186000109296011092970110929801109299018E
:1018700010929A018FEF9FEF90939C0180939B01B0
:1018800090939E0180939D0190E080E02091A301C0
:1018900028171906A9F0A4F0E0919F01F091A0018A
:1018A000E80FF91F10820196F1CFDC018D919C9118
:1018B00011970097D1F70D931C9357CF8F5F68CF87
:1018C000CA56DF4F0FB6F894DEBF0FBECDBFDF9113
:1018D000CF911F910F91FF90EF900895052E97FBE8
:1018E0001EF400940E94850C57FD07D00E94980CAE
:1018F00007FC03D04EF40C94850C50954095309520
:1019000021953F4F4F4F5F4F08959095809570956B
:1019100061957F4F8F4F9F4F08950E94BA0CA59FEE
:10192000900DB49F900DA49F800D911D11240895DA
:10193000A1E21A2EAA1BBB1BFD010DC0AA1FBB1FD3
:10194000EE1FFF1FA217B307E407F50720F0A21B45
:10195000B30BE40BF50B661F771F881F991F1A94B2
:1019600069F760957095809590959B01AC01BD01DC
:10197000CF010895A29FB001B39FC001A39F700D36
:10198000811D1124911DB29F700D811D1124911D87
:10199000089597FB072E16F4009407D077FD09D021
:1019A0000E94DD0C07FC05D03EF4909581959F4F79
:1019B0000895709561957F4F0895AA1BBB1B51E157
:1019C00007C0AA1FBB1FA617B70710F0A61BB70BAF
:1019D000881F991F5A95A9F780959095BC01CD0154
:1019E0000895EE0FFF1F0590F491E02D09940F93D9
:1019F0001F93CF93DF938230910510F482E090E043
:101A0000E0910302F091040230E020E0B0E0A0E0B9
:101A1000309799F42115310509F44AC0281B390B78
:101A200024303105D8F58A819B816115710589F1D2
:101A3000FB0193838283FE0111C0408151810281A9
:101A4000138148175907E0F04817590799F4109780
:101A500061F012960C93129713961C933296CF0155
:101A6000DF91CF911F910F9108950093030210937E
:101A70000402F4CF2115310551F04217530738F015
:101A8000A901DB019A01BD01DF01F801C1CFEF011E
:101A9000F9CF9093040280930302CDCFFE01E20FB1
:101AA000F31F819391932250310939832883D7CF33
:101AB0002091010230910202232B41F42091020176
:101AC0003091030130930202209301022091000122
:101AD000309101012115310541F42DB73EB74091F8
:101AE000040150910501241B350BE0910102F09196
:101AF0000202E217F307A0F42E1B3F0B2817390749
:101B000078F0AC014E5F5F4F2417350748F04E0F59
:101B10005F1F5093020240930102819391939FCFE4
:101B2000F0E0E0E09CCFCF93DF930097E9F0FC0179
:101B3000329713821282A0910302B0910402ED0148
:101B400030E020E01097A1F420813181820F931FB3
:101B500020910102309102022817390709F061C073
:101B6000F0930202E0930102DF91CF910895EA0120
:101B7000CE17DF07E8F54A815B819E0141155105CB
:101B8000B1F7E901FB83EA8349915991C40FD51F4D
:101B9000EC17FD0761F4808191810296840F951FF7
:101BA000E90199838883828193819B838A83F0E012
:101BB000E0E012968D919C9113970097B9F52D91C5
:101BC0003C911197CD010296820F931F2091010243
:101BD000309102022817390739F6309751F51092E3
:101BE000040210920302B0930202A0930102BCCF40
:101BF000D383C28340815181840F951FC817D907B1
:101C000061F44E5F5F4F88819981480F591F51835E
:101C100040838A819B81938382832115310509F05A
:101C2000B0CFF0930402E09303029ECFFD01DC01EC
:101C3000C0CF13821282D7CFFB01DC0102C001901A
:0E1C40000D9241505040D8F70895F894FFCF10
:101C4E0000000502800000000000180279023B022D
:101C5E00E4056B696361642D746F6F6C732E6F7224
:061C6E00673A303300006C
:00000001FF
