:100000000EC020C01FC01EC01DC01CC01BC01AC017
:1000100019C018C017C016C015C014C013C01124D1
:100020001FBECFE5D2E0DEBFCDBF10E0A0E6B0E05E
:10003000E0ECF0E002C005900D92A637B107D9F7C9
:1000400002D03CC0DDCF17BA18BA16B880E888B91C
:1000500081E090E0E0E6F0E017BA18BAA081B0E0E5
:10006000AE58BF4F2C91AC0102C0440F551F2A95CA
:10007000E2F748BBA081B0E0AE58BF4F2C91DC0145
:1000800002C0AA0FBB1F2A95E2F79D01A181B0E033
:10009000AE58BF4F3C91AC0101C0440F3A95EAF70E
:1000A000242B27BBABE7B2E91197F1F700C00000A2
:1000B0003296B0E0E237FB0779F6CCCFF894FFCF69
:1000C000000101000002020000030300010202011E
:0600D0000103030400011E
:00000001FF
